{
  "contractName": "Will",
  "abi": [
    {
      "anonymous": false,
      "inputs": [
        {
          "indexed": true,
          "internalType": "address",
          "name": "payee",
          "type": "address"
        },
        {
          "indexed": false,
          "internalType": "uint256",
          "name": "weiAmount",
          "type": "uint256"
        }
      ],
      "name": "Deposited",
      "type": "event"
    },
    {
      "anonymous": false,
      "inputs": [
        {
          "indexed": true,
          "internalType": "address",
          "name": "payee",
          "type": "address"
        },
        {
          "indexed": false,
          "internalType": "uint256",
          "name": "weiAmount",
          "type": "uint256"
        }
      ],
      "name": "Withdrawn",
      "type": "event"
    },
    {
      "inputs": [
        {
          "internalType": "address",
          "name": "_payee",
          "type": "address"
        }
      ],
      "name": "depositsOf",
      "outputs": [
        {
          "internalType": "uint256",
          "name": "",
          "type": "uint256"
        }
      ],
      "stateMutability": "view",
      "type": "function",
      "constant": true
    },
    {
      "inputs": [
        {
          "internalType": "address",
          "name": "_payee",
          "type": "address"
        },
        {
          "internalType": "uint256",
          "name": "_offset",
          "type": "uint256"
        }
      ],
      "name": "createDeposit",
      "outputs": [],
      "stateMutability": "payable",
      "type": "function",
      "payable": true
    },
    {
      "inputs": [
        {
          "internalType": "address",
          "name": "_payee",
          "type": "address"
        }
      ],
      "name": "deposit",
      "outputs": [
        {
          "internalType": "bool",
          "name": "",
          "type": "bool"
        }
      ],
      "stateMutability": "payable",
      "type": "function",
      "payable": true
    },
    {
      "inputs": [
        {
          "internalType": "address",
          "name": "_payee",
          "type": "address"
        }
      ],
      "name": "ping",
      "outputs": [
        {
          "internalType": "bool",
          "name": "",
          "type": "bool"
        }
      ],
      "stateMutability": "nonpayable",
      "type": "function"
    },
    {
      "inputs": [
        {
          "internalType": "address",
          "name": "_payee",
          "type": "address"
        }
      ],
      "name": "getDeposit",
      "outputs": [
        {
          "internalType": "uint256",
          "name": "",
          "type": "uint256"
        },
        {
          "internalType": "uint256",
          "name": "",
          "type": "uint256"
        },
        {
          "internalType": "uint256",
          "name": "",
          "type": "uint256"
        }
      ],
      "stateMutability": "view",
      "type": "function",
      "constant": true
    },
    {
      "inputs": [
        {
          "internalType": "address payable",
          "name": "_payee",
          "type": "address"
        }
      ],
      "name": "withdraw",
      "outputs": [],
      "stateMutability": "nonpayable",
      "type": "function"
    }
  ],
  "bytecode": "0x608060405234801561001057600080fd5b50610d40806100206000396000f3fe6080604052600436106100555760003560e01c806314df9e431461005a578063442e501d1461009757806351cff8d9146100b3578063e1254fba146100dc578063e3a9db1a1461011b578063f340fa0114610158575b600080fd5b34801561006657600080fd5b50610081600480360381019061007c919061086c565b610188565b60405161008e91906109c7565b60405180910390f35b6100b160048036038101906100ac91906108be565b610263565b005b3480156100bf57600080fd5b506100da60048036038101906100d59190610895565b61036b565b005b3480156100e857600080fd5b5061010360048036038101906100fe919061086c565b6105b4565b60405161011293929190610a9d565b60405180910390f35b34801561012757600080fd5b50610142600480360381019061013d919061086c565b610617565b60405161014f9190610a82565b60405180910390f35b610172600480360381019061016d919061086c565b610662565b60405161017f91906109c7565b60405180910390f35b6000806000808473ffffffffffffffffffffffffffffffffffffffff1673ffffffffffffffffffffffffffffffffffffffff1681526020019081526020016000206001015490506000811415610213576040517f08c379a000000000000000000000000000000000000000000000000000000000815260040161020a90610a62565b60405180910390fd5b426000808573ffffffffffffffffffffffffffffffffffffffff1673ffffffffffffffffffffffffffffffffffffffff168152602001908152602001600020600101819055506001915050919050565b60008060008473ffffffffffffffffffffffffffffffffffffffff1673ffffffffffffffffffffffffffffffffffffffff168152602001908152602001600020600101549050600081146102ec576040517f08c379a00000000000000000000000000000000000000000000000000000000081526004016102e390610a02565b60405180910390fd5b6040518060600160405280348152602001428152602001838152506000808573ffffffffffffffffffffffffffffffffffffffff1673ffffffffffffffffffffffffffffffffffffffff168152602001908152602001600020600082015181600001556020820151816001015560408201518160020155905050505050565b3373ffffffffffffffffffffffffffffffffffffffff168173ffffffffffffffffffffffffffffffffffffffff16146103d9576040517f08c379a00000000000000000000000000000000000000000000000000000000081526004016103d090610a42565b60405180910390fd5b60008060008373ffffffffffffffffffffffffffffffffffffffff1673ffffffffffffffffffffffffffffffffffffffff1681526020019081526020016000206001015490506000811415610463576040517f08c379a000000000000000000000000000000000000000000000000000000000815260040161045a90610a62565b60405180910390fd5b60008060008473ffffffffffffffffffffffffffffffffffffffff1673ffffffffffffffffffffffffffffffffffffffff16815260200190815260200160002090506000816002015482600101546104bb9190610ae5565b426104c69190610b3b565b11610506576040517f08c379a00000000000000000000000000000000000000000000000000000000081526004016104fd90610a22565b60405180910390fd5b600081600001549050600082600001819055508373ffffffffffffffffffffffffffffffffffffffff166108fc829081150290604051600060405180830381858888f1935050505015801561055f573d6000803e3d6000fd5b508373ffffffffffffffffffffffffffffffffffffffff167f7084f5476618d8e60b11ef0d7d3f06914655adb8793e28ff7f018d4c76d505d5826040516105a69190610a82565b60405180910390a250505050565b6000806000806000808673ffffffffffffffffffffffffffffffffffffffff1673ffffffffffffffffffffffffffffffffffffffff1681526020019081526020016000209050806000015481600101548260020154935093509350509193909250565b60008060008373ffffffffffffffffffffffffffffffffffffffff1673ffffffffffffffffffffffffffffffffffffffff168152602001908152602001600020600001549050919050565b60008034905060003414156106ac576040517f08c379a00000000000000000000000000000000000000000000000000000000081526004016106a3906109e2565b60405180910390fd5b60008060008573ffffffffffffffffffffffffffffffffffffffff1673ffffffffffffffffffffffffffffffffffffffff1681526020019081526020016000206001015490506000811415610736576040517f08c379a000000000000000000000000000000000000000000000000000000000815260040161072d90610a62565b60405180910390fd5b346000808673ffffffffffffffffffffffffffffffffffffffff1673ffffffffffffffffffffffffffffffffffffffff16815260200190815260200160002060000160008282546107879190610ae5565b92505081905550426000808673ffffffffffffffffffffffffffffffffffffffff1673ffffffffffffffffffffffffffffffffffffffff168152602001908152602001600020600101819055508373ffffffffffffffffffffffffffffffffffffffff167f2da466a7b24304f47e87fa2e1e5a81b9831ce54fec19055ce277ca2f39ba42c48360405161081a9190610a82565b60405180910390a2600192505050919050565b60008135905061083c81610cc5565b92915050565b60008135905061085181610cdc565b92915050565b60008135905061086681610cf3565b92915050565b60006020828403121561087e57600080fd5b600061088c8482850161082d565b91505092915050565b6000602082840312156108a757600080fd5b60006108b584828501610842565b91505092915050565b600080604083850312156108d157600080fd5b60006108df8582860161082d565b92505060206108f085828601610857565b9150509250929050565b61090381610b93565b82525050565b6000610916601183610ad4565b915061092182610bf8565b602082019050919050565b6000610939601683610ad4565b915061094482610c21565b602082019050919050565b600061095c601d83610ad4565b915061096782610c4a565b602082019050919050565b600061097f601d83610ad4565b915061098a82610c73565b602082019050919050565b60006109a2601683610ad4565b91506109ad82610c9c565b602082019050919050565b6109c181610bbf565b82525050565b60006020820190506109dc60008301846108fa565b92915050565b600060208201905081810360008301526109fb81610909565b9050919050565b60006020820190508181036000830152610a1b8161092c565b9050919050565b60006020820190508181036000830152610a3b8161094f565b9050919050565b60006020820190508181036000830152610a5b81610972565b9050919050565b60006020820190508181036000830152610a7b81610995565b9050919050565b6000602082019050610a9760008301846109b8565b92915050565b6000606082019050610ab260008301866109b8565b610abf60208301856109b8565b610acc60408301846109b8565b949350505050565b600082825260208201905092915050565b6000610af082610bbf565b9150610afb83610bbf565b9250827fffffffffffffffffffffffffffffffffffffffffffffffffffffffffffffffff03821115610b3057610b2f610bc9565b5b828201905092915050565b6000610b4682610bbf565b9150610b5183610bbf565b925082821015610b6457610b63610bc9565b5b828203905092915050565b6000610b7a82610b9f565b9050919050565b6000610b8c82610b9f565b9050919050565b60008115159050919050565b600073ffffffffffffffffffffffffffffffffffffffff82169050919050565b6000819050919050565b7f4e487b7100000000000000000000000000000000000000000000000000000000600052601160045260246000fd5b7f56616c75652063616e6e6f742062652030000000000000000000000000000000600082015250565b7f4465706f73697420616c72656164792065786973747300000000000000000000600082015250565b7f596f752063616e6e6f74207769746864726177206d6f6e657920796574000000600082015250565b7f4f6e6c79206f776e65722063616e207769746864726177206d6f6e6579000000600082015250565b7f4465706f73697420646f6573206e6f7420657869737400000000000000000000600082015250565b610cce81610b6f565b8114610cd957600080fd5b50565b610ce581610b81565b8114610cf057600080fd5b50565b610cfc81610bbf565b8114610d0757600080fd5b5056fea26469706673582212202ebe8565e63337914783699f572d7d1161f25e225a1005499c39c2472d83ad2764736f6c63430008020033",
  "immutableReferences": {},
  "source": "pragma solidity 0.8.2;\n\ncontract Will {\n    /*\n    Concept:\n        * someone wants to create will and deposit some amount of money\n        * person does that and he'll be automatically emailed from time to time\n          to ping contract in order to not allow withdrawing money before time\n        * if person that deposited money won't ping smart contract (e.g. person is dead)\n          withdrawal become possible and \n\n    */\n\n    event Deposited(address indexed payee, uint256 weiAmount);\n    event Withdrawn(address indexed payee, uint256 weiAmount);\n\n    struct Deposit {\n        uint256 amount;\n        uint256 lastCall; // timestamp of last call\n        uint256 offset; // how long after lastCall you can withdraw money\n    }\n\n    mapping(address => Deposit) private _deposits;\n\n    function depositsOf(address _payee) public view returns (uint256) {\n        return _deposits[_payee].amount;\n    }\n\n    /**\n     * @dev create deposit for given address with given offset\n     */\n    function createDeposit(address _payee, uint256 _offset) public payable {\n        uint256 exists = _deposits[_payee].lastCall;\n        require(exists == 0, \"Deposit already exists\");\n\n        _deposits[_payee] = Deposit({\n            amount: msg.value,\n            lastCall: block.timestamp,\n            offset: _offset\n        });\n    }\n\n    /**\n     * @dev Stores the sent amount as credit to be withdrawn.\n     * @param _payee The destination address of the funds.\n     */\n    function deposit(address _payee) public payable returns (bool) {\n        uint256 amount = msg.value;\n        require(msg.value != 0, \"Value cannot be 0\");\n\n        uint256 exists = _deposits[_payee].lastCall;\n        require(exists != 0, \"Deposit does not exist\");\n\n        _deposits[_payee].amount += msg.value;\n        _deposits[_payee].lastCall = block.timestamp;\n\n        emit Deposited(_payee, amount);\n        return true;\n    }\n\n    function ping(address _payee) public returns (bool) {\n        uint256 exists = _deposits[_payee].lastCall;\n        require(exists != 0, \"Deposit does not exist\");\n\n        _deposits[_payee].lastCall = block.timestamp;\n        return true;\n    }\n\n    function getDeposit(address _payee)\n        public\n        view\n        returns (\n            uint256,\n            uint256,\n            uint256\n        )\n    {\n        Deposit storage d = _deposits[_payee];\n\n        return (d.amount, d.lastCall, d.offset);\n    }\n\n    /**\n     * @dev Withdraw accumulated balance for a _payee.\n     * @param _payee The address whose funds will be withdrawn and transferred to.\n     */\n    function withdraw(address payable _payee) public {\n        require(_payee == msg.sender, \"Only owner can withdraw money\");\n        uint256 exists = _deposits[_payee].lastCall;\n        require(exists != 0, \"Deposit does not exist\");\n\n        Deposit storage d = _deposits[_payee];\n\n        require(\n            block.timestamp - (d.lastCall + d.offset) > 0,\n            \"You cannot withdraw money yet\"\n        );\n\n        uint256 payment = d.amount;\n        d.amount = 0;\n\n        _payee.transfer(payment);\n\n        emit Withdrawn(_payee, payment);\n    }\n}\n",
  "sourcePath": "/Users/kamilwyszynski/go/src/github.com/blockchain-tryout/dWill/blockchain/contracts/Will.sol",
  "compiler": {
    "name": "solc",
    "version": "0.8.2+commit.661d1103.Emscripten.clang"
  },
  "schemaVersion": "3.3.4",
  "updatedAt": "2021-03-22T12:34:49.458Z",
  "networkType": "ethereum",
  "devdoc": {
    "kind": "dev",
    "methods": {
      "createDeposit(address,uint256)": {
        "details": "create deposit for given address with given offset"
      },
      "deposit(address)": {
        "details": "Stores the sent amount as credit to be withdrawn.",
        "params": {
          "_payee": "The destination address of the funds."
        }
      },
      "withdraw(address)": {
        "details": "Withdraw accumulated balance for a _payee.",
        "params": {
          "_payee": "The address whose funds will be withdrawn and transferred to."
        }
      }
    },
    "version": 1
  },
  "userdoc": {
    "kind": "user",
    "methods": {},
    "version": 1
  }
}