{
  "contractName": "Voting",
  "abi": [
    {
      "inputs": [
        {
          "internalType": "string[]",
          "name": "_candidates",
          "type": "string[]"
        }
      ],
      "stateMutability": "nonpayable",
      "type": "constructor"
    },
    {
      "inputs": [
        {
          "internalType": "uint256",
          "name": "",
          "type": "uint256"
        }
      ],
      "name": "candidates",
      "outputs": [
        {
          "internalType": "string",
          "name": "name",
          "type": "string"
        },
        {
          "internalType": "uint256",
          "name": "votes",
          "type": "uint256"
        }
      ],
      "stateMutability": "view",
      "type": "function",
      "constant": true
    },
    {
      "inputs": [],
      "name": "owner",
      "outputs": [
        {
          "internalType": "address",
          "name": "",
          "type": "address"
        }
      ],
      "stateMutability": "view",
      "type": "function",
      "constant": true
    },
    {
      "inputs": [
        {
          "internalType": "address",
          "name": "",
          "type": "address"
        }
      ],
      "name": "voters",
      "outputs": [
        {
          "internalType": "uint256",
          "name": "inx",
          "type": "uint256"
        },
        {
          "internalType": "bool",
          "name": "voted",
          "type": "bool"
        },
        {
          "internalType": "bool",
          "name": "hasRight",
          "type": "bool"
        },
        {
          "internalType": "uint8",
          "name": "weight",
          "type": "uint8"
        },
        {
          "internalType": "address",
          "name": "delegated",
          "type": "address"
        }
      ],
      "stateMutability": "view",
      "type": "function",
      "constant": true
    },
    {
      "inputs": [
        {
          "internalType": "address",
          "name": "_addr",
          "type": "address"
        }
      ],
      "name": "giveRightToVote",
      "outputs": [],
      "stateMutability": "nonpayable",
      "type": "function"
    },
    {
      "inputs": [
        {
          "internalType": "address",
          "name": "_addr",
          "type": "address"
        }
      ],
      "name": "delegateVoter",
      "outputs": [],
      "stateMutability": "nonpayable",
      "type": "function"
    },
    {
      "inputs": [
        {
          "internalType": "uint256",
          "name": "_proposal",
          "type": "uint256"
        }
      ],
      "name": "vote",
      "outputs": [],
      "stateMutability": "nonpayable",
      "type": "function"
    },
    {
      "inputs": [],
      "name": "winningCandidate",
      "outputs": [
        {
          "internalType": "string",
          "name": "winner",
          "type": "string"
        }
      ],
      "stateMutability": "view",
      "type": "function",
      "constant": true
    }
  ],
  "bytecode": "0x60806040523480156200001157600080fd5b5060405162001882380380620018828339818101604052810190620000379190620003fa565b336000806101000a81548173ffffffffffffffffffffffffffffffffffffffff021916908373ffffffffffffffffffffffffffffffffffffffff16021790555060018060008060009054906101000a900473ffffffffffffffffffffffffffffffffffffffff1673ffffffffffffffffffffffffffffffffffffffff1673ffffffffffffffffffffffffffffffffffffffff16815260200190815260200160002060010160026101000a81548160ff021916908360ff16021790555060018060008060009054906101000a900473ffffffffffffffffffffffffffffffffffffffff1673ffffffffffffffffffffffffffffffffffffffff1673ffffffffffffffffffffffffffffffffffffffff16815260200190815260200160002060010160016101000a81548160ff02191690831515021790555060005b81518110156200023e5760026040518060400160405280848481518110620001c2577f4e487b7100000000000000000000000000000000000000000000000000000000600052603260045260246000fd5b602002602001015181526020016000815250908060018154018082558091505060019003906000526020600020906002020160009091909190915060008201518160000190805190602001906200021b92919062000246565b506020820151816001015550508080620002359062000579565b91505062000171565b505062000665565b82805462000254906200050d565b90600052602060002090601f016020900481019282620002785760008555620002c4565b82601f106200029357805160ff1916838001178555620002c4565b82800160010185558215620002c4579182015b82811115620002c3578251825591602001919060010190620002a6565b5b509050620002d39190620002d7565b5090565b5b80821115620002f2576000816000905550600101620002d8565b5090565b60006200030d620003078462000468565b6200043f565b9050808382526020820190508260005b85811015620003515781518501620003368882620003cd565b8452602084019350602083019250506001810190506200031d565b5050509392505050565b6000620003726200036c8462000497565b6200043f565b9050828152602081018484840111156200038b57600080fd5b62000398848285620004d7565b509392505050565b600082601f830112620003b257600080fd5b8151620003c4848260208601620002f6565b91505092915050565b600082601f830112620003df57600080fd5b8151620003f18482602086016200035b565b91505092915050565b6000602082840312156200040d57600080fd5b600082015167ffffffffffffffff8111156200042857600080fd5b6200043684828501620003a0565b91505092915050565b60006200044b6200045e565b905062000459828262000543565b919050565b6000604051905090565b600067ffffffffffffffff82111562000486576200048562000625565b5b602082029050602081019050919050565b600067ffffffffffffffff821115620004b557620004b462000625565b5b620004c08262000654565b9050602081019050919050565b6000819050919050565b60005b83811015620004f7578082015181840152602081019050620004da565b8381111562000507576000848401525b50505050565b600060028204905060018216806200052657607f821691505b602082108114156200053d576200053c620005f6565b5b50919050565b6200054e8262000654565b810181811067ffffffffffffffff8211171562000570576200056f62000625565b5b80604052505050565b60006200058682620004cd565b91507fffffffffffffffffffffffffffffffffffffffffffffffffffffffffffffffff821415620005bc57620005bb620005c7565b5b600182019050919050565b7f4e487b7100000000000000000000000000000000000000000000000000000000600052601160045260246000fd5b7f4e487b7100000000000000000000000000000000000000000000000000000000600052602260045260246000fd5b7f4e487b7100000000000000000000000000000000000000000000000000000000600052604160045260246000fd5b6000601f19601f8301169050919050565b61120d80620006756000396000f3fe608060405234801561001057600080fd5b506004361061007d5760003560e01c80639e7b8d611161005b5780639e7b8d61146100ed578063a3ec138d14610109578063c564f0ed1461013d578063d28178d7146101595761007d565b80630121b93f146100825780633477ee2e1461009e5780638da5cb5b146100cf575b600080fd5b61009c60048036038101906100979190610c14565b610177565b005b6100b860048036038101906100b39190610c14565b61035f565b6040516100c6929190610d9e565b60405180910390f35b6100d761041b565b6040516100e49190610d61565b60405180910390f35b61010760048036038101906101029190610beb565b61043f565b005b610123600480360381019061011e9190610beb565b61060d565b604051610134959493929190610e6e565b60405180910390f35b61015760048036038101906101529190610beb565b61068a565b005b610161610a1e565b60405161016e9190610d7c565b60405180910390f35b600160003373ffffffffffffffffffffffffffffffffffffffff1673ffffffffffffffffffffffffffffffffffffffff16815260200190815260200160002060010160009054906101000a900460ff1615610207576040517f08c379a00000000000000000000000000000000000000000000000000000000081526004016101fe90610dee565b60405180910390fd5b600160003373ffffffffffffffffffffffffffffffffffffffff1673ffffffffffffffffffffffffffffffffffffffff16815260200190815260200160002060010160029054906101000a900460ff1660ff1660028281548110610294577f4e487b7100000000000000000000000000000000000000000000000000000000600052603260045260246000fd5b906000526020600020906002020160010160008282546102b49190610edd565b9250508190555060018060003373ffffffffffffffffffffffffffffffffffffffff1673ffffffffffffffffffffffffffffffffffffffff16815260200190815260200160002060010160006101000a81548160ff02191690831515021790555080600160003373ffffffffffffffffffffffffffffffffffffffff1673ffffffffffffffffffffffffffffffffffffffff1681526020019081526020016000206000018190555050565b6002818154811061036f57600080fd5b906000526020600020906002020160009150905080600001805461039290610ff2565b80601f01602080910402602001604051908101604052809291908181526020018280546103be90610ff2565b801561040b5780601f106103e05761010080835404028352916020019161040b565b820191906000526020600020905b8154815290600101906020018083116103ee57829003601f168201915b5050505050908060010154905082565b60008054906101000a900473ffffffffffffffffffffffffffffffffffffffff1681565b60008054906101000a900473ffffffffffffffffffffffffffffffffffffffff1673ffffffffffffffffffffffffffffffffffffffff163373ffffffffffffffffffffffffffffffffffffffff16146104cd576040517f08c379a00000000000000000000000000000000000000000000000000000000081526004016104c490610e4e565b60405180910390fd5b6040518060a0016040528060008152602001600015158152602001600115158152602001600160ff168152602001600073ffffffffffffffffffffffffffffffffffffffff16815250600160008373ffffffffffffffffffffffffffffffffffffffff1673ffffffffffffffffffffffffffffffffffffffff1681526020019081526020016000206000820151816000015560208201518160010160006101000a81548160ff02191690831515021790555060408201518160010160016101000a81548160ff02191690831515021790555060608201518160010160026101000a81548160ff021916908360ff16021790555060808201518160010160036101000a81548173ffffffffffffffffffffffffffffffffffffffff021916908373ffffffffffffffffffffffffffffffffffffffff16021790555090505050565b60016020528060005260406000206000915090508060000154908060010160009054906101000a900460ff16908060010160019054906101000a900460ff16908060010160029054906101000a900460ff16908060010160039054906101000a900473ffffffffffffffffffffffffffffffffffffffff16905085565b6000600160003373ffffffffffffffffffffffffffffffffffffffff1673ffffffffffffffffffffffffffffffffffffffff16815260200190815260200160002090508060010160009054906101000a900460ff161561071f576040517f08c379a000000000000000000000000000000000000000000000000000000000815260040161071690610dce565b60405180910390fd5b600073ffffffffffffffffffffffffffffffffffffffff168160010160039054906101000a900473ffffffffffffffffffffffffffffffffffffffff1673ffffffffffffffffffffffffffffffffffffffff16146107b2576040517f08c379a00000000000000000000000000000000000000000000000000000000081526004016107a990610e0e565b60405180910390fd5b8173ffffffffffffffffffffffffffffffffffffffff163373ffffffffffffffffffffffffffffffffffffffff161415610821576040517f08c379a000000000000000000000000000000000000000000000000000000000815260040161081890610e2e565b60405180910390fd5b818160010160036101000a81548173ffffffffffffffffffffffffffffffffffffffff021916908373ffffffffffffffffffffffffffffffffffffffff16021790555060018160010160006101000a81548160ff0219169083151502179055506000600160008473ffffffffffffffffffffffffffffffffffffffff1673ffffffffffffffffffffffffffffffffffffffff1681526020019081526020016000206040518060a0016040529081600082015481526020016001820160009054906101000a900460ff161515151581526020016001820160019054906101000a900460ff161515151581526020016001820160029054906101000a900460ff1660ff1660ff1681526020016001820160039054906101000a900473ffffffffffffffffffffffffffffffffffffffff1673ffffffffffffffffffffffffffffffffffffffff1673ffffffffffffffffffffffffffffffffffffffff168152505090508060200151156109f65760028160000151815481106109ca577f4e487b7100000000000000000000000000000000000000000000000000000000600052603260045260246000fd5b906000526020600020906002020160010160008154809291906109ec90611024565b9190505550610a19565b600181606001818151610a099190610f33565b91509060ff16908160ff16815250505b505050565b60606000805b600280549050811015610bbc578160028281548110610a6c577f4e487b7100000000000000000000000000000000000000000000000000000000600052603260045260246000fd5b9060005260206000209060020201600101541115610ba95760028181548110610abe577f4e487b7100000000000000000000000000000000000000000000000000000000600052603260045260246000fd5b90600052602060002090600202016000018054610ada90610ff2565b80601f0160208091040260200160405190810160405280929190818152602001828054610b0690610ff2565b8015610b535780601f10610b2857610100808354040283529160200191610b53565b820191906000526020600020905b815481529060010190602001808311610b3657829003601f168201915b5050505050925060028181548110610b94577f4e487b7100000000000000000000000000000000000000000000000000000000600052603260045260246000fd5b90600052602060002090600202016001015491505b8080610bb490611024565b915050610a24565b505090565b600081359050610bd0816111a9565b92915050565b600081359050610be5816111c0565b92915050565b600060208284031215610bfd57600080fd5b6000610c0b84828501610bc1565b91505092915050565b600060208284031215610c2657600080fd5b6000610c3484828501610bd6565b91505092915050565b610c4681610f6a565b82525050565b610c5581610f7c565b82525050565b6000610c6682610ec1565b610c708185610ecc565b9350610c80818560208601610fbf565b610c89816110cb565b840191505092915050565b6000610ca1601183610ecc565b9150610cac826110dc565b602082019050919050565b6000610cc4601583610ecc565b9150610ccf82611105565b602082019050919050565b6000610ce7601d83610ecc565b9150610cf28261112e565b602082019050919050565b6000610d0a601c83610ecc565b9150610d1582611157565b602082019050919050565b6000610d2d601583610ecc565b9150610d3882611180565b602082019050919050565b610d4c81610fa8565b82525050565b610d5b81610fb2565b82525050565b6000602082019050610d766000830184610c3d565b92915050565b60006020820190508181036000830152610d968184610c5b565b905092915050565b60006040820190508181036000830152610db88185610c5b565b9050610dc76020830184610d43565b9392505050565b60006020820190508181036000830152610de781610c94565b9050919050565b60006020820190508181036000830152610e0781610cb7565b9050919050565b60006020820190508181036000830152610e2781610cda565b9050919050565b60006020820190508181036000830152610e4781610cfd565b9050919050565b60006020820190508181036000830152610e6781610d20565b9050919050565b600060a082019050610e836000830188610d43565b610e906020830187610c4c565b610e9d6040830186610c4c565b610eaa6060830185610d52565b610eb76080830184610c3d565b9695505050505050565b600081519050919050565b600082825260208201905092915050565b6000610ee882610fa8565b9150610ef383610fa8565b9250827fffffffffffffffffffffffffffffffffffffffffffffffffffffffffffffffff03821115610f2857610f2761106d565b5b828201905092915050565b6000610f3e82610fb2565b9150610f4983610fb2565b92508260ff03821115610f5f57610f5e61106d565b5b828201905092915050565b6000610f7582610f88565b9050919050565b60008115159050919050565b600073ffffffffffffffffffffffffffffffffffffffff82169050919050565b6000819050919050565b600060ff82169050919050565b60005b83811015610fdd578082015181840152602081019050610fc2565b83811115610fec576000848401525b50505050565b6000600282049050600182168061100a57607f821691505b6020821081141561101e5761101d61109c565b5b50919050565b600061102f82610fa8565b91507fffffffffffffffffffffffffffffffffffffffffffffffffffffffffffffffff8214156110625761106161106d565b5b600182019050919050565b7f4e487b7100000000000000000000000000000000000000000000000000000000600052601160045260246000fd5b7f4e487b7100000000000000000000000000000000000000000000000000000000600052602260045260246000fd5b6000601f19601f8301169050919050565b7f596f7520616c726561647920766f746564000000000000000000000000000000600082015250565b7f506572736f6e20616c726561647920766f746564210000000000000000000000600082015250565b7f596f7520616c72656164792064656c65676174656420736f6d656f6e65000000600082015250565b7f596f752063616e6e6f742064656c656761746520796f757273656c6600000000600082015250565b7f4f6e6c79206f776e65722063616e207573652069740000000000000000000000600082015250565b6111b281610f6a565b81146111bd57600080fd5b50565b6111c981610fa8565b81146111d457600080fd5b5056fea264697066735822122052f759587b0692cef7b242c6cfa9d08fc188759d9e60ea903649648b959a0afe64736f6c63430008020033",
  "immutableReferences": {},
  "source": "// SPDX-License-Identifier: MIT\npragma solidity 0.8.2;\n\n/// @title Voting with delegation\ncontract Voting {\n    address public owner;\n\n    struct Candidate {\n        string name;\n        uint256 votes;\n    }\n\n    struct Voter {\n        uint256 inx;\n        bool voted;\n        bool hasRight;\n        uint8 weight;\n        address delegated; // voter can delegate another voter to vote insted of origin voter\n    }\n\n    mapping(address => Voter) public voters;\n    Candidate[] public candidates;\n\n    constructor(string[] memory _candidates) {\n        owner = msg.sender;\n        voters[owner].weight = 1;\n        voters[owner].hasRight = true;\n\n        for (uint256 i = 0; i < _candidates.length; i++) {\n            candidates.push(Candidate({name: _candidates[i], votes: 0}));\n        }\n    }\n\n    modifier onlyOwner {\n        require(msg.sender == owner, \"Only owner can use it\");\n        _;\n    }\n\n    function giveRightToVote(address _addr) public onlyOwner {\n        voters[_addr] = Voter({\n            inx: 0,\n            hasRight: true,\n            weight: 1,\n            voted: false,\n            delegated: address(0)\n        });\n    }\n\n    function delegateVoter(address _addr) public {\n        Voter storage _voter = voters[msg.sender];\n        require(!_voter.voted, \"You already voted\");\n        require(\n            _voter.delegated == address(0),\n            \"You already delegated someone\"\n        );\n        require(msg.sender != _addr, \"You cannot delegate yourself\");\n\n        _voter.delegated = _addr;\n        _voter.voted = true; // not really, delegated person could not vote at all\n\n        Voter memory _delegated = voters[_addr];\n        if (_delegated.voted) {\n            candidates[_delegated.inx].votes++;\n        } else {\n            _delegated.weight += 1;\n        }\n    }\n\n    modifier onlyOnce {\n        require(!voters[msg.sender].voted, \"Person already voted!\");\n        _;\n    }\n\n    function vote(uint256 _proposal) public onlyOnce {\n        candidates[_proposal].votes += voters[msg.sender].weight;\n        voters[msg.sender].voted = true;\n        voters[msg.sender].inx = _proposal;\n    }\n\n    function winningCandidate() public view returns (string memory winner) {\n        uint256 winningCandidateVotesCount = 0;\n\n        for (uint256 i = 0; i < candidates.length; i++) {\n            if (candidates[i].votes > winningCandidateVotesCount) {\n                winner = candidates[i].name;\n                winningCandidateVotesCount = candidates[i].votes;\n            }\n        }\n    }\n}\n",
  "sourcePath": "/Users/kamilwyszynski/go/src/github.com/blockchain-tryout/Voting/contracts/Voting.sol",
  "compiler": {
    "name": "solc",
    "version": "0.8.2+commit.661d1103.Emscripten.clang"
  },
  "schemaVersion": "3.3.4",
  "updatedAt": "2021-03-13T22:39:50.799Z",
  "networkType": "ethereum",
  "devdoc": {
    "kind": "dev",
    "methods": {},
    "title": "Voting with delegation",
    "version": 1
  },
  "userdoc": {
    "kind": "user",
    "methods": {},
    "version": 1
  }
}