{
  "contractName": "Voting",
  "abi": [
    {
      "inputs": [
        {
          "internalType": "string[]",
          "name": "_candidates",
          "type": "string[]"
        }
      ],
      "stateMutability": "nonpayable",
      "type": "constructor"
    },
    {
      "inputs": [
        {
          "internalType": "uint256",
          "name": "",
          "type": "uint256"
        }
      ],
      "name": "candidates",
      "outputs": [
        {
          "internalType": "string",
          "name": "name",
          "type": "string"
        },
        {
          "internalType": "uint256",
          "name": "votes",
          "type": "uint256"
        }
      ],
      "stateMutability": "view",
      "type": "function",
      "constant": true
    },
    {
      "inputs": [],
      "name": "owner",
      "outputs": [
        {
          "internalType": "address",
          "name": "",
          "type": "address"
        }
      ],
      "stateMutability": "view",
      "type": "function",
      "constant": true
    },
    {
      "inputs": [],
      "name": "votedCount",
      "outputs": [
        {
          "internalType": "int256",
          "name": "",
          "type": "int256"
        }
      ],
      "stateMutability": "view",
      "type": "function",
      "constant": true
    },
    {
      "inputs": [
        {
          "internalType": "address",
          "name": "",
          "type": "address"
        }
      ],
      "name": "voters",
      "outputs": [
        {
          "internalType": "uint256",
          "name": "inx",
          "type": "uint256"
        },
        {
          "internalType": "bool",
          "name": "voted",
          "type": "bool"
        },
        {
          "internalType": "bool",
          "name": "hasRight",
          "type": "bool"
        },
        {
          "internalType": "uint8",
          "name": "weight",
          "type": "uint8"
        },
        {
          "internalType": "address",
          "name": "delegated",
          "type": "address"
        }
      ],
      "stateMutability": "view",
      "type": "function",
      "constant": true
    },
    {
      "inputs": [
        {
          "internalType": "address",
          "name": "_addr",
          "type": "address"
        }
      ],
      "name": "giveRightToVote",
      "outputs": [],
      "stateMutability": "nonpayable",
      "type": "function"
    },
    {
      "inputs": [
        {
          "internalType": "address",
          "name": "_addr",
          "type": "address"
        }
      ],
      "name": "delegateVoter",
      "outputs": [],
      "stateMutability": "nonpayable",
      "type": "function"
    },
    {
      "inputs": [
        {
          "internalType": "uint256",
          "name": "_proposal",
          "type": "uint256"
        }
      ],
      "name": "vote",
      "outputs": [],
      "stateMutability": "nonpayable",
      "type": "function"
    },
    {
      "inputs": [],
      "name": "winningCandidate",
      "outputs": [
        {
          "internalType": "string",
          "name": "winner",
          "type": "string"
        }
      ],
      "stateMutability": "view",
      "type": "function",
      "constant": true
    }
  ],
  "bytecode": "0x60806040523480156200001157600080fd5b50604051620019aa380380620019aa8339818101604052810190620000379190620003fc565b336000806101000a81548173ffffffffffffffffffffffffffffffffffffffff021916908373ffffffffffffffffffffffffffffffffffffffff1602179055506001600260008060009054906101000a900473ffffffffffffffffffffffffffffffffffffffff1673ffffffffffffffffffffffffffffffffffffffff1673ffffffffffffffffffffffffffffffffffffffff16815260200190815260200160002060010160026101000a81548160ff021916908360ff1602179055506001600260008060009054906101000a900473ffffffffffffffffffffffffffffffffffffffff1673ffffffffffffffffffffffffffffffffffffffff1673ffffffffffffffffffffffffffffffffffffffff16815260200190815260200160002060010160016101000a81548160ff02191690831515021790555060005b8151811015620002405760036040518060400160405280848481518110620001c4577f4e487b7100000000000000000000000000000000000000000000000000000000600052603260045260246000fd5b602002602001015181526020016000815250908060018154018082558091505060019003906000526020600020906002020160009091909190915060008201518160000190805190602001906200021d92919062000248565b50602082015181600101555050808062000237906200057b565b91505062000173565b505062000667565b82805462000256906200050f565b90600052602060002090601f0160209004810192826200027a5760008555620002c6565b82601f106200029557805160ff1916838001178555620002c6565b82800160010185558215620002c6579182015b82811115620002c5578251825591602001919060010190620002a8565b5b509050620002d59190620002d9565b5090565b5b80821115620002f4576000816000905550600101620002da565b5090565b60006200030f62000309846200046a565b62000441565b9050808382526020820190508260005b85811015620003535781518501620003388882620003cf565b8452602084019350602083019250506001810190506200031f565b5050509392505050565b6000620003746200036e8462000499565b62000441565b9050828152602081018484840111156200038d57600080fd5b6200039a848285620004d9565b509392505050565b600082601f830112620003b457600080fd5b8151620003c6848260208601620002f8565b91505092915050565b600082601f830112620003e157600080fd5b8151620003f38482602086016200035d565b91505092915050565b6000602082840312156200040f57600080fd5b600082015167ffffffffffffffff8111156200042a57600080fd5b6200043884828501620003a2565b91505092915050565b60006200044d62000460565b90506200045b828262000545565b919050565b6000604051905090565b600067ffffffffffffffff82111562000488576200048762000627565b5b602082029050602081019050919050565b600067ffffffffffffffff821115620004b757620004b662000627565b5b620004c28262000656565b9050602081019050919050565b6000819050919050565b60005b83811015620004f9578082015181840152602081019050620004dc565b8381111562000509576000848401525b50505050565b600060028204905060018216806200052857607f821691505b602082108114156200053f576200053e620005f8565b5b50919050565b620005508262000656565b810181811067ffffffffffffffff8211171562000572576200057162000627565b5b80604052505050565b60006200058882620004cf565b91507fffffffffffffffffffffffffffffffffffffffffffffffffffffffffffffffff821415620005be57620005bd620005c9565b5b600182019050919050565b7f4e487b7100000000000000000000000000000000000000000000000000000000600052601160045260246000fd5b7f4e487b7100000000000000000000000000000000000000000000000000000000600052602260045260246000fd5b7f4e487b7100000000000000000000000000000000000000000000000000000000600052604160045260246000fd5b6000601f19601f8301169050919050565b61133380620006776000396000f3fe608060405234801561001057600080fd5b50600436106100885760003560e01c8063a3ec138d1161005b578063a3ec138d14610114578063c564f0ed14610148578063d28178d714610164578063f0232d0a1461018257610088565b80630121b93f1461008d5780633477ee2e146100a95780638da5cb5b146100da5780639e7b8d61146100f8575b600080fd5b6100a760048036038101906100a29190610c51565b6101a0565b005b6100c360048036038101906100be9190610c51565b610430565b6040516100d1929190610e28565b60405180910390f35b6100e26104ec565b6040516100ef9190610dd0565b60405180910390f35b610112600480360381019061010d9190610c28565b610510565b005b61012e60048036038101906101299190610c28565b6106de565b60405161013f959493929190610f18565b60405180910390f35b610162600480360381019061015d9190610c28565b61075b565b005b61016c610a55565b6040516101799190610e06565b60405180910390f35b61018a610bf8565b6040516101979190610deb565b60405180910390f35b600260003373ffffffffffffffffffffffffffffffffffffffff1673ffffffffffffffffffffffffffffffffffffffff16815260200190815260200160002060010160009054906101000a900460ff1615610230576040517f08c379a000000000000000000000000000000000000000000000000000000000815260040161022790610e78565b60405180910390fd5b600260003373ffffffffffffffffffffffffffffffffffffffff1673ffffffffffffffffffffffffffffffffffffffff16815260200190815260200160002060010160019054906101000a900460ff166102bf576040517f08c379a00000000000000000000000000000000000000000000000000000000081526004016102b690610ef8565b60405180910390fd5b600260003373ffffffffffffffffffffffffffffffffffffffff1673ffffffffffffffffffffffffffffffffffffffff16815260200190815260200160002060010160029054906101000a900460ff1660ff166003828154811061034c577f4e487b7100000000000000000000000000000000000000000000000000000000600052603260045260246000fd5b9060005260206000209060020201600101600082825461036c9190610f87565b925050819055506001600260003373ffffffffffffffffffffffffffffffffffffffff1673ffffffffffffffffffffffffffffffffffffffff16815260200190815260200160002060010160006101000a81548160ff02191690831515021790555080600260003373ffffffffffffffffffffffffffffffffffffffff1673ffffffffffffffffffffffffffffffffffffffff1681526020019081526020016000206000018190555060016000815480929190610428906110d8565b919050555050565b6003818154811061044057600080fd5b9060005260206000209060020201600091509050806000018054610463906110a6565b80601f016020809104026020016040519081016040528092919081815260200182805461048f906110a6565b80156104dc5780601f106104b1576101008083540402835291602001916104dc565b820191906000526020600020905b8154815290600101906020018083116104bf57829003601f168201915b5050505050908060010154905082565b60008054906101000a900473ffffffffffffffffffffffffffffffffffffffff1681565b60008054906101000a900473ffffffffffffffffffffffffffffffffffffffff1673ffffffffffffffffffffffffffffffffffffffff163373ffffffffffffffffffffffffffffffffffffffff161461059e576040517f08c379a000000000000000000000000000000000000000000000000000000000815260040161059590610ed8565b60405180910390fd5b6040518060a0016040528060008152602001600015158152602001600115158152602001600160ff168152602001600073ffffffffffffffffffffffffffffffffffffffff16815250600260008373ffffffffffffffffffffffffffffffffffffffff1673ffffffffffffffffffffffffffffffffffffffff1681526020019081526020016000206000820151816000015560208201518160010160006101000a81548160ff02191690831515021790555060408201518160010160016101000a81548160ff02191690831515021790555060608201518160010160026101000a81548160ff021916908360ff16021790555060808201518160010160036101000a81548173ffffffffffffffffffffffffffffffffffffffff021916908373ffffffffffffffffffffffffffffffffffffffff16021790555090505050565b60026020528060005260406000206000915090508060000154908060010160009054906101000a900460ff16908060010160019054906101000a900460ff16908060010160029054906101000a900460ff16908060010160039054906101000a900473ffffffffffffffffffffffffffffffffffffffff16905085565b6000600260003373ffffffffffffffffffffffffffffffffffffffff1673ffffffffffffffffffffffffffffffffffffffff16815260200190815260200160002090508060010160009054906101000a900460ff16156107f0576040517f08c379a00000000000000000000000000000000000000000000000000000000081526004016107e790610e58565b60405180910390fd5b600073ffffffffffffffffffffffffffffffffffffffff168160010160039054906101000a900473ffffffffffffffffffffffffffffffffffffffff1673ffffffffffffffffffffffffffffffffffffffff1614610883576040517f08c379a000000000000000000000000000000000000000000000000000000000815260040161087a90610e98565b60405180910390fd5b8173ffffffffffffffffffffffffffffffffffffffff163373ffffffffffffffffffffffffffffffffffffffff1614156108f2576040517f08c379a00000000000000000000000000000000000000000000000000000000081526004016108e990610eb8565b60405180910390fd5b818160010160036101000a81548173ffffffffffffffffffffffffffffffffffffffff021916908373ffffffffffffffffffffffffffffffffffffffff16021790555060018160010160006101000a81548160ff0219169083151502179055506000600260008473ffffffffffffffffffffffffffffffffffffffff1673ffffffffffffffffffffffffffffffffffffffff16815260200190815260200160002090508060010160009054906101000a900460ff1615610a165760038160000154815481106109ea577f4e487b7100000000000000000000000000000000000000000000000000000000600052603260045260246000fd5b90600052602060002090600202016001016000815480929190610a0c90611121565b9190505550610a50565b60018160010160028282829054906101000a900460ff16610a379190610fdd565b92506101000a81548160ff021916908360ff1602179055505b505050565b60606000805b600380549050811015610bf3578160038281548110610aa3577f4e487b7100000000000000000000000000000000000000000000000000000000600052603260045260246000fd5b9060005260206000209060020201600101541115610be05760038181548110610af5577f4e487b7100000000000000000000000000000000000000000000000000000000600052603260045260246000fd5b90600052602060002090600202016000018054610b11906110a6565b80601f0160208091040260200160405190810160405280929190818152602001828054610b3d906110a6565b8015610b8a5780601f10610b5f57610100808354040283529160200191610b8a565b820191906000526020600020905b815481529060010190602001808311610b6d57829003601f168201915b5050505050925060038181548110610bcb577f4e487b7100000000000000000000000000000000000000000000000000000000600052603260045260246000fd5b90600052602060002090600202016001015491505b8080610beb90611121565b915050610a5b565b505090565b60015481565b600081359050610c0d816112cf565b92915050565b600081359050610c22816112e6565b92915050565b600060208284031215610c3a57600080fd5b6000610c4884828501610bfe565b91505092915050565b600060208284031215610c6357600080fd5b6000610c7184828501610c13565b91505092915050565b610c8381611014565b82525050565b610c9281611026565b82525050565b610ca181611032565b82525050565b6000610cb282610f6b565b610cbc8185610f76565b9350610ccc818560208601611073565b610cd5816111c8565b840191505092915050565b6000610ced601183610f76565b9150610cf8826111d9565b602082019050919050565b6000610d10601583610f76565b9150610d1b82611202565b602082019050919050565b6000610d33601d83610f76565b9150610d3e8261122b565b602082019050919050565b6000610d56601c83610f76565b9150610d6182611254565b602082019050919050565b6000610d79601583610f76565b9150610d848261127d565b602082019050919050565b6000610d9c601b83610f76565b9150610da7826112a6565b602082019050919050565b610dbb8161105c565b82525050565b610dca81611066565b82525050565b6000602082019050610de56000830184610c7a565b92915050565b6000602082019050610e006000830184610c98565b92915050565b60006020820190508181036000830152610e208184610ca7565b905092915050565b60006040820190508181036000830152610e428185610ca7565b9050610e516020830184610db2565b9392505050565b60006020820190508181036000830152610e7181610ce0565b9050919050565b60006020820190508181036000830152610e9181610d03565b9050919050565b60006020820190508181036000830152610eb181610d26565b9050919050565b60006020820190508181036000830152610ed181610d49565b9050919050565b60006020820190508181036000830152610ef181610d6c565b9050919050565b60006020820190508181036000830152610f1181610d8f565b9050919050565b600060a082019050610f2d6000830188610db2565b610f3a6020830187610c89565b610f476040830186610c89565b610f546060830185610dc1565b610f616080830184610c7a565b9695505050505050565b600081519050919050565b600082825260208201905092915050565b6000610f928261105c565b9150610f9d8361105c565b9250827fffffffffffffffffffffffffffffffffffffffffffffffffffffffffffffffff03821115610fd257610fd161116a565b5b828201905092915050565b6000610fe882611066565b9150610ff383611066565b92508260ff038211156110095761100861116a565b5b828201905092915050565b600061101f8261103c565b9050919050565b60008115159050919050565b6000819050919050565b600073ffffffffffffffffffffffffffffffffffffffff82169050919050565b6000819050919050565b600060ff82169050919050565b60005b83811015611091578082015181840152602081019050611076565b838111156110a0576000848401525b50505050565b600060028204905060018216806110be57607f821691505b602082108114156110d2576110d1611199565b5b50919050565b60006110e382611032565b91507f7fffffffffffffffffffffffffffffffffffffffffffffffffffffffffffffff8214156111165761111561116a565b5b600182019050919050565b600061112c8261105c565b91507fffffffffffffffffffffffffffffffffffffffffffffffffffffffffffffffff82141561115f5761115e61116a565b5b600182019050919050565b7f4e487b7100000000000000000000000000000000000000000000000000000000600052601160045260246000fd5b7f4e487b7100000000000000000000000000000000000000000000000000000000600052602260045260246000fd5b6000601f19601f8301169050919050565b7f596f7520616c726561647920766f746564000000000000000000000000000000600082015250565b7f506572736f6e20616c726561647920766f746564210000000000000000000000600082015250565b7f596f7520616c72656164792064656c65676174656420736f6d656f6e65000000600082015250565b7f596f752063616e6e6f742064656c656761746520796f757273656c6600000000600082015250565b7f4f6e6c79206f776e65722063616e207573652069740000000000000000000000600082015250565b7f506572736f6e20646f6573206e6f742068617665207269676874730000000000600082015250565b6112d881611014565b81146112e357600080fd5b50565b6112ef8161105c565b81146112fa57600080fd5b5056fea2646970667358221220bee5dd3f49ac858e04218b238e6d7b331dbb233e67f72b1e079cf881fc2594d264736f6c63430008020033",
  "immutableReferences": {},
  "source": "// SPDX-License-Identifier: MIT\npragma solidity 0.8.2;\n\n/// @title Voting with delegation\ncontract Voting {\n    address public owner;\n\n    struct Candidate {\n        string name;\n        uint256 votes;\n    }\n\n    struct Voter {\n        uint256 inx;\n        bool voted;\n        bool hasRight;\n        uint8 weight;\n        address delegated; // voter can delegate another voter to vote insted of origin voter\n    }\n\n    int256 public votedCount;\n    mapping(address => Voter) public voters;\n\n    Candidate[] public candidates;\n\n    constructor(string[] memory _candidates) {\n        owner = msg.sender;\n        voters[owner].weight = 1;\n        voters[owner].hasRight = true;\n\n        for (uint256 i = 0; i < _candidates.length; i++) {\n            candidates.push(Candidate({name: _candidates[i], votes: 0}));\n        }\n    }\n\n    modifier onlyOwner {\n        require(msg.sender == owner, \"Only owner can use it\");\n        _;\n    }\n\n    function giveRightToVote(address _addr) public onlyOwner {\n        voters[_addr] = Voter({\n            inx: 0,\n            hasRight: true,\n            weight: 1,\n            voted: false,\n            delegated: address(0)\n        });\n    }\n\n    function delegateVoter(address _addr) public {\n        Voter storage _voter = voters[msg.sender];\n        require(!_voter.voted, \"You already voted\");\n        require(\n            _voter.delegated == address(0),\n            \"You already delegated someone\"\n        );\n        require(msg.sender != _addr, \"You cannot delegate yourself\");\n\n        _voter.delegated = _addr;\n        _voter.voted = true; // not really, delegated person could not vote at all\n\n        Voter storage _delegated = voters[_addr];\n        if (_delegated.voted) {\n            candidates[_delegated.inx].votes++;\n        } else {\n            _delegated.weight += 1;\n        }\n    }\n\n    modifier onlyOnce {\n        require(!voters[msg.sender].voted, \"Person already voted!\");\n        _;\n    }\n\n    modifier withRight {\n        require(voters[msg.sender].hasRight, \"Person does not have rights\");\n        _;\n    }\n\n    function vote(uint256 _proposal) public onlyOnce withRight {\n        candidates[_proposal].votes += voters[msg.sender].weight;\n        voters[msg.sender].voted = true;\n        voters[msg.sender].inx = _proposal;\n        votedCount++;\n    }\n\n    function winningCandidate() public view returns (string memory winner) {\n        uint256 winningCandidateVotesCount = 0;\n\n        for (uint256 i = 0; i < candidates.length; i++) {\n            if (candidates[i].votes > winningCandidateVotesCount) {\n                winner = candidates[i].name;\n                winningCandidateVotesCount = candidates[i].votes;\n            }\n        }\n    }\n}\n",
  "sourcePath": "/Users/kamilwyszynski/go/src/github.com/blockchain-tryout/Voting/contracts/Voting.sol",
  "compiler": {
    "name": "solc",
    "version": "0.8.2+commit.661d1103.Emscripten.clang"
  },
  "schemaVersion": "3.3.4",
  "updatedAt": "2021-03-14T16:47:03.346Z",
  "networkType": "ethereum",
  "devdoc": {
    "kind": "dev",
    "methods": {},
    "title": "Voting with delegation",
    "version": 1
  },
  "userdoc": {
    "kind": "user",
    "methods": {},
    "version": 1
  }
}