{
  "contractName": "Will",
  "abi": [
    {
      "anonymous": false,
      "inputs": [
        {
          "indexed": true,
          "internalType": "address",
          "name": "payee",
          "type": "address"
        },
        {
          "indexed": false,
          "internalType": "uint256",
          "name": "weiAmount",
          "type": "uint256"
        }
      ],
      "name": "Deposited",
      "type": "event"
    },
    {
      "anonymous": false,
      "inputs": [
        {
          "indexed": true,
          "internalType": "address",
          "name": "payee",
          "type": "address"
        },
        {
          "indexed": false,
          "internalType": "uint256",
          "name": "weiAmount",
          "type": "uint256"
        }
      ],
      "name": "Withdrawn",
      "type": "event"
    },
    {
      "inputs": [],
      "name": "ethStorage",
      "outputs": [
        {
          "internalType": "uint256",
          "name": "",
          "type": "uint256"
        }
      ],
      "stateMutability": "view",
      "type": "function",
      "constant": true
    },
    {
      "inputs": [
        {
          "internalType": "uint256",
          "name": "_amount",
          "type": "uint256"
        }
      ],
      "name": "store",
      "outputs": [
        {
          "internalType": "bool",
          "name": "",
          "type": "bool"
        }
      ],
      "stateMutability": "nonpayable",
      "type": "function"
    },
    {
      "inputs": [
        {
          "internalType": "address",
          "name": "payee",
          "type": "address"
        }
      ],
      "name": "depositsOf",
      "outputs": [
        {
          "internalType": "uint256",
          "name": "",
          "type": "uint256"
        }
      ],
      "stateMutability": "view",
      "type": "function",
      "constant": true
    },
    {
      "inputs": [
        {
          "internalType": "address",
          "name": "payee",
          "type": "address"
        }
      ],
      "name": "deposit",
      "outputs": [],
      "stateMutability": "payable",
      "type": "function",
      "payable": true
    },
    {
      "inputs": [
        {
          "internalType": "address payable",
          "name": "payee",
          "type": "address"
        }
      ],
      "name": "withdraw",
      "outputs": [],
      "stateMutability": "nonpayable",
      "type": "function"
    }
  ],
  "bytecode": "0x608060405234801561001057600080fd5b5061061a806100206000396000f3fe60806040526004361061004a5760003560e01c806351cff8d91461004f5780636057361d14610078578063d8611116146100b5578063e3a9db1a146100e0578063f340fa011461011d575b600080fd5b34801561005b57600080fd5b506100766004803603810190610071919061041a565b610139565b005b34801561008457600080fd5b5061009f600480360381019061009a9190610443565b61025b565b6040516100ac919061048a565b60405180910390f35b3480156100c157600080fd5b506100ca61027e565b6040516100d791906104a5565b60405180910390f35b3480156100ec57600080fd5b50610107600480360381019061010291906103f1565b610284565b60405161011491906104a5565b60405180910390f35b610137600480360381019061013291906103f1565b6102cd565b005b6000600160008373ffffffffffffffffffffffffffffffffffffffff1673ffffffffffffffffffffffffffffffffffffffff1681526020019081526020016000205490506000600160008473ffffffffffffffffffffffffffffffffffffffff1673ffffffffffffffffffffffffffffffffffffffff168152602001908152602001600020819055508173ffffffffffffffffffffffffffffffffffffffff166108fc829081150290604051600060405180830381858888f19350505050158015610208573d6000803e3d6000fd5b508173ffffffffffffffffffffffffffffffffffffffff167f7084f5476618d8e60b11ef0d7d3f06914655adb8793e28ff7f018d4c76d505d58260405161024f91906104a5565b60405180910390a25050565b60008160008082825461026e91906104c0565b9250508190555060019050919050565b60005481565b6000600160008373ffffffffffffffffffffffffffffffffffffffff1673ffffffffffffffffffffffffffffffffffffffff168152602001908152602001600020549050919050565b600034905080600160008473ffffffffffffffffffffffffffffffffffffffff1673ffffffffffffffffffffffffffffffffffffffff1681526020019081526020016000205461031d91906104c0565b600160008473ffffffffffffffffffffffffffffffffffffffff1673ffffffffffffffffffffffffffffffffffffffff168152602001908152602001600020819055508173ffffffffffffffffffffffffffffffffffffffff167f2da466a7b24304f47e87fa2e1e5a81b9831ce54fec19055ce277ca2f39ba42c4826040516103a691906104a5565b60405180910390a25050565b6000813590506103c18161059f565b92915050565b6000813590506103d6816105b6565b92915050565b6000813590506103eb816105cd565b92915050565b60006020828403121561040357600080fd5b6000610411848285016103b2565b91505092915050565b60006020828403121561042c57600080fd5b600061043a848285016103c7565b91505092915050565b60006020828403121561045557600080fd5b6000610463848285016103dc565b91505092915050565b6104758161053a565b82525050565b61048481610566565b82525050565b600060208201905061049f600083018461046c565b92915050565b60006020820190506104ba600083018461047b565b92915050565b60006104cb82610566565b91506104d683610566565b9250827fffffffffffffffffffffffffffffffffffffffffffffffffffffffffffffffff0382111561050b5761050a610570565b5b828201905092915050565b600061052182610546565b9050919050565b600061053382610546565b9050919050565b60008115159050919050565b600073ffffffffffffffffffffffffffffffffffffffff82169050919050565b6000819050919050565b7f4e487b7100000000000000000000000000000000000000000000000000000000600052601160045260246000fd5b6105a881610516565b81146105b357600080fd5b50565b6105bf81610528565b81146105ca57600080fd5b50565b6105d681610566565b81146105e157600080fd5b5056fea2646970667358221220faba30058a306ca6df13f699153dac6ba161772e4bf36b7f3fcfe5d45622401464736f6c63430008020033",
  "immutableReferences": {},
  "source": "pragma solidity 0.8.2;\n\ncontract Will {\n    uint256 public ethStorage;\n\n    function store(uint256 _amount) external returns (bool) {\n        ethStorage += _amount;\n        return true;\n    }\n\n    event Deposited(address indexed payee, uint256 weiAmount);\n    event Withdrawn(address indexed payee, uint256 weiAmount);\n\n    mapping(address => uint256) private _deposits;\n\n    function depositsOf(address payee) public view returns (uint256) {\n        return _deposits[payee];\n    }\n\n    /**\n     * @dev Stores the sent amount as credit to be withdrawn.\n     * @param payee The destination address of the funds.\n     */\n    function deposit(address payee) public payable {\n        uint256 amount = msg.value;\n        _deposits[payee] = _deposits[payee] + amount;\n\n        emit Deposited(payee, amount);\n    }\n\n    /**\n     * @dev Withdraw accumulated balance for a payee.\n     * @param payee The address whose funds will be withdrawn and transferred to.\n     */\n    function withdraw(address payable payee) public {\n        uint256 payment = _deposits[payee];\n\n        _deposits[payee] = 0;\n\n        payee.transfer(payment);\n\n        emit Withdrawn(payee, payment);\n    }\n}\n",
  "sourcePath": "/Users/kamilwyszynski/go/src/github.com/blockchain-tryout/dWill/contracts/Will.sol",
  "compiler": {
    "name": "solc",
    "version": "0.8.2+commit.661d1103.Emscripten.clang"
  },
  "schemaVersion": "3.3.4",
  "updatedAt": "2021-03-14T18:05:09.066Z",
  "networkType": "ethereum",
  "devdoc": {
    "kind": "dev",
    "methods": {
      "deposit(address)": {
        "details": "Stores the sent amount as credit to be withdrawn.",
        "params": {
          "payee": "The destination address of the funds."
        }
      },
      "withdraw(address)": {
        "details": "Withdraw accumulated balance for a payee.",
        "params": {
          "payee": "The address whose funds will be withdrawn and transferred to."
        }
      }
    },
    "version": 1
  },
  "userdoc": {
    "kind": "user",
    "methods": {},
    "version": 1
  }
}