{
  "contractName": "MetaCoin",
  "abi": [
    {
      "inputs": [],
      "stateMutability": "nonpayable",
      "type": "constructor"
    },
    {
      "anonymous": false,
      "inputs": [
        {
          "indexed": true,
          "internalType": "address",
          "name": "_from",
          "type": "address"
        },
        {
          "indexed": true,
          "internalType": "address",
          "name": "_to",
          "type": "address"
        },
        {
          "indexed": false,
          "internalType": "uint256",
          "name": "_value",
          "type": "uint256"
        }
      ],
      "name": "Transfer",
      "type": "event"
    },
    {
      "inputs": [
        {
          "internalType": "address",
          "name": "receiver",
          "type": "address"
        },
        {
          "internalType": "uint256",
          "name": "amount",
          "type": "uint256"
        }
      ],
      "name": "sendCoin",
      "outputs": [
        {
          "internalType": "bool",
          "name": "sufficient",
          "type": "bool"
        }
      ],
      "stateMutability": "nonpayable",
      "type": "function"
    },
    {
      "inputs": [
        {
          "internalType": "address",
          "name": "addr",
          "type": "address"
        }
      ],
      "name": "getBalanceInEth",
      "outputs": [
        {
          "internalType": "uint256",
          "name": "",
          "type": "uint256"
        }
      ],
      "stateMutability": "view",
      "type": "function"
    },
    {
      "inputs": [
        {
          "internalType": "address",
          "name": "addr",
          "type": "address"
        }
      ],
      "name": "getBalance",
      "outputs": [
        {
          "internalType": "uint256",
          "name": "",
          "type": "uint256"
        }
      ],
      "stateMutability": "view",
      "type": "function"
    },
    {
      "inputs": [],
      "name": "test",
      "outputs": [
        {
          "internalType": "string",
          "name": "",
          "type": "string"
        }
      ],
      "stateMutability": "view",
      "type": "function"
    }
  ],
  "bytecode": "0x608060405234801561001057600080fd5b506127106000803273ffffffffffffffffffffffffffffffffffffffff1673ffffffffffffffffffffffffffffffffffffffff16815260200190815260200160002081905550610724806100656000396000f3fe608060405234801561001057600080fd5b506004361061004c5760003560e01c80637bd703e81461005157806390b98a1114610081578063f8a8fd6d146100b1578063f8b2cb4f146100cf575b600080fd5b61006b600480360381019061006691906103c9565b6100ff565b6040516100789190610509565b60405180910390f35b61009b600480360381019061009691906103f2565b61019a565b6040516100a891906104cc565b60405180910390f35b6100b9610305565b6040516100c691906104e7565b60405180910390f35b6100e960048036038101906100e491906103c9565b610342565b6040516100f69190610509565b60405180910390f35b600073__ConvertLib____________________________6396e4ee3d61012484610342565b60026040518363ffffffff1660e01b8152600401610143929190610524565b60206040518083038186803b15801561015b57600080fd5b505af415801561016f573d6000803e3d6000fd5b505050506040513d601f19601f82011682018060405250810190610193919061042e565b9050919050565b6000816000803373ffffffffffffffffffffffffffffffffffffffff1673ffffffffffffffffffffffffffffffffffffffff1681526020019081526020016000205410156101eb57600090506102ff565b816000803373ffffffffffffffffffffffffffffffffffffffff1673ffffffffffffffffffffffffffffffffffffffff168152602001908152602001600020600082825461023991906105bf565b92505081905550816000808573ffffffffffffffffffffffffffffffffffffffff1673ffffffffffffffffffffffffffffffffffffffff168152602001908152602001600020600082825461028e9190610569565b925050819055508273ffffffffffffffffffffffffffffffffffffffff163373ffffffffffffffffffffffffffffffffffffffff167fddf252ad1be2c89b69c2b068fc378daa952ba7f163c4a11628f55a4df523b3ef846040516102f29190610509565b60405180910390a3600190505b92915050565b60606040518060400160405280600481526020017f7465737400000000000000000000000000000000000000000000000000000000815250905090565b60008060008373ffffffffffffffffffffffffffffffffffffffff1673ffffffffffffffffffffffffffffffffffffffff168152602001908152602001600020549050919050565b600081359050610399816106c0565b92915050565b6000813590506103ae816106d7565b92915050565b6000815190506103c3816106d7565b92915050565b6000602082840312156103db57600080fd5b60006103e98482850161038a565b91505092915050565b6000806040838503121561040557600080fd5b60006104138582860161038a565b92505060206104248582860161039f565b9150509250929050565b60006020828403121561044057600080fd5b600061044e848285016103b4565b91505092915050565b61046081610605565b82525050565b61046f8161063b565b82525050565b60006104808261054d565b61048a8185610558565b935061049a81856020860161064d565b6104a3816106af565b840191505092915050565b6104b781610631565b82525050565b6104c681610631565b82525050565b60006020820190506104e16000830184610457565b92915050565b600060208201905081810360008301526105018184610475565b905092915050565b600060208201905061051e60008301846104ae565b92915050565b600060408201905061053960008301856104bd565b6105466020830184610466565b9392505050565b600081519050919050565b600082825260208201905092915050565b600061057482610631565b915061057f83610631565b9250827fffffffffffffffffffffffffffffffffffffffffffffffffffffffffffffffff038211156105b4576105b3610680565b5b828201905092915050565b60006105ca82610631565b91506105d583610631565b9250828210156105e8576105e7610680565b5b828203905092915050565b60006105fe82610611565b9050919050565b60008115159050919050565b600073ffffffffffffffffffffffffffffffffffffffff82169050919050565b6000819050919050565b600061064682610631565b9050919050565b60005b8381101561066b578082015181840152602081019050610650565b8381111561067a576000848401525b50505050565b7f4e487b7100000000000000000000000000000000000000000000000000000000600052601160045260246000fd5b6000601f19601f8301169050919050565b6106c9816105f3565b81146106d457600080fd5b50565b6106e081610631565b81146106eb57600080fd5b5056fea26469706673582212204fcf04f5c85e70b30c0f33a4e2f53ae0f92092e331f39d7fa8af2c75a8c2ab1664736f6c63430008020033",
  "immutableReferences": {},
  "source": "// SPDX-License-Identifier: MIT\npragma solidity 0.8.2;\n\nimport \"./ConvertLib.sol\";\n\n// This is just a simple example of a coin-like contract.\n// It is not standards compatible and cannot be expected to talk to other\n// coin/token contracts. If you want to create a standards-compliant\n// token, see: https://github.com/ConsenSys/Tokens. Cheers!\n\ncontract MetaCoin {\n    mapping(address => uint256) balances;\n\n    event Transfer(address indexed _from, address indexed _to, uint256 _value);\n\n    constructor() public {\n        balances[tx.origin] = 10000;\n    }\n\n    function sendCoin(address receiver, uint256 amount)\n        public\n        returns (bool sufficient)\n    {\n        if (balances[msg.sender] < amount) return false;\n        balances[msg.sender] -= amount;\n        balances[receiver] += amount;\n        emit Transfer(msg.sender, receiver, amount);\n        return true;\n    }\n\n    function getBalanceInEth(address addr) public view returns (uint256) {\n        return ConvertLib.convert(getBalance(addr), 2);\n    }\n\n    function getBalance(address addr) public view returns (uint256) {\n        return balances[addr];\n    }\n\n    function test() public view returns (string memory) {\n        return \"test\";\n    }\n}\n",
  "sourcePath": "/Users/kamilwyszynski/go/src/github.com/blockchain-tryout/MetaCoin/contracts/MetaCoin.sol",
  "compiler": {
    "name": "solc",
    "version": "0.8.2+commit.661d1103.Emscripten.clang"
  },
  "schemaVersion": "3.3.4",
  "updatedAt": "2021-03-12T17:11:15.874Z",
  "devdoc": {
    "kind": "dev",
    "methods": {},
    "version": 1
  },
  "userdoc": {
    "kind": "user",
    "methods": {},
    "version": 1
  }
}